:100000000C9426030C946D030C946D030C946D03F7
:100010000C946D030C946D030C946D030C946D03A0
:100020000C946D030C946D030C94751B0C94B11A15
:100030000C94F71E0C946D030C946D030C946D03DB
:100040000C946D030C946D030C946D030C946D0370
:100050000C946D030C94851E0C946D030C946D032D
:100060000C946D030C946D030C946D030C946D0350
:100070000C946D030C946D030C946D030C946D0340
:100080000C946D030C946D030C946D030C946D0330
:100090000C946D030C946D030C946D030C946D0320
:1000A0000C946D030C946D030C946D030705070508
:1000B000420542059105B10510081008F305100826
:1000C000E006E00610088007ED06ED06ED06ED06F9
:1000D000ED06ED06ED06ED06ED06ED06ED06ED0688
:1000E000ED06ED06ED06ED06FC0625072A073107AD
:1000F0004907040A060A110A080A0A0A0C0A0E0A23
:10010000100A130A150A170A220A190A1B0A1D0ADD
:100110001F0A210A240AC218E918891AE918891A3B
:1001200031195419891A521A651A95219521A82155
:10013000A8219E21A821A821A82195219521A321AC
:10014000A821A821A32129003A003C003E0040003C
:10015000000043004500470000003B003D003F0019
:100160004100420044004600015135001F002100BB
:100170002300250027002E002A004A001E00200030
:100180002200240026002D00000049004B002B0017
:100190001A0015001C000C001300300000004D0078
:1001A000140008001700180012002F0031004C0046
:1001B0004E000000160009000B000E003300000086
:1001C00000000000040007000A000D000F003400CA
:1001D000280000000000E1001D00060005001000DE
:1001E0003700E5000000520000001B00190011005C
:1001F00036003800000000000000E000E3000000CE
:10020000000000000000000000005100000000009D
:1002100000002C000000E700E40050004F00005CEC
:10022000C25CC45CC65CC85C0000CB5CCF5CCE5CCE
:100230000000C35CC55CC75CC95CCA5CCC5CD45CB8
:1002400001000100010001000100010001000100A6
:100250000100010001000100010001000100010096
:100260000000010001000100010001000100010087
:10027000010001000000A8000100010001000100D0
:10028000010001000100B2007E0039000100010000
:100290000100010001000000000000000100010059
:1002A0000100010001000100010000000000010048
:1002B0000100010001000100010001000000A9008F
:1002C0000000010001000100010001000000000029
:1002D00000000100E200000000000000000000003B
:1002E0000000AA0000000000000001000000E6007D
:1002F0000100AC00AB0000000000000000000000A6
:1003000001010101010101010102020202020202D6
:1003100002030303030303030404040404050505A3
:100320000505060606060607070707080808080960
:1003300009090A0A0A0B0B0B0C0C0C0D0D0D0E0E05
:100340000E0F0F1010101111121213131414151593
:1003500016161717181819191A1A1B1C1C1D1D1E02
:100360001F1F202121222323242525262728282951
:100370002A2B2C2C2D2E2F30313132333435363779
:1003800038393A3B3C3D3E3F404142434445464775
:1003900048494B4C4D4E4F50525354555758595A4B
:1003A0005C5D5E606163646567686A6B6C6E6F71EB
:1003B00072747677797A7C7D7F8182848687898B57
:1003C0008D8E9092949597999B9D9FA1A2A4A6A88B
:1003D000AAACAEB0B2B4B6B9BBBDBFC1C3C5C8CA82
:1003E000CCCED0D3D5D7DADCDEE1E3E6E8EAEDEF38
:1003F000F2F4F7F9FCFFFFAA7F55402223252628B7
:10040000292A2C2D2F3032333536383A3B3D3E40A9
:1004100042434547494A4C4E5051535557595A5CEF
:100420005E6062646668696B6D6F71737577797B06
:100430007D7F81838587898A8C8E90929496989A05
:100440009C9E9FA1A3A5A7A8AAACAEAFB1B3B4B61A
:10045000B8B9BBBCBEBFC1C2C3C5C6C7C9CACBCC75
:10046000CDCED0D1D2D2D3D4D5D6D7D7D8D9D9DA48
:10047000DADBDBDBDCDCDCDCDCDDDDDDDDDCDCDCBD
:10048000DCDCDBDBDBDADAD9D9D8D7D7D6D5D4D3E5
:10049000D2D2D1D0CECDCCCBCAC9C7C6C5C3C2C1BA
:1004A000BFBEBCBBB9B8B6B4B3B1AFAEACAAA8A717
:1004B000A5A3A19F9E9C9A98969492908E8C8A89CF
:1004C000878583817F7D7B79777573716F6D6B69AC
:1004D00068666462605E5C5A5957555351504E4C81
:1004E0004A4947454342403E3D3B3A383635333230
:1004F000302F2D2C2A29282625232200047F3F1F58
:10050000643214643214783C1E1E140A0505010975
:1005100002A10185020901A100050919012905159A
:10052000002501950575018102950175038101057D
:1005300001093009311581257F9502750881060969
:10054000381581257F950175088106050C0A38024A
:100550001581257F950175088106C0C005010980B8
:10056000A10185031601002603001A81002A8300D9
:10057000751095018100C0050C0901A101850416C3
:100580000100269C021A01002A9C02751095018127
:1005900000C005010906A101050719E029E71500BA
:1005A00025019508750181029501750881010508ED
:1005B00019012905950575019102950175039101B0
:1005C0000507190029FF150026FF0095067508810B
:1005D00000C009023B00020100A0FA09040000016A
:1005E00003010100092111010001224000070581DA
:1005F0000308000A09040100010300000009211199
:100600000100012285000705820320000A12011063
:100610000100000008EDFE000001000102030104DA
:1006200003300000000A0368003800370061000052
:10063000001403680069006E0065007900620075AF
:1006400000730068000000040309040011241FBEA9
:10065000CFEFDAE0DEBFCDBF04B603FE27C0809146
:10066000C3029091C402A091C502B091C602873026
:10067000904BA740B04BD1F41092C3021092C40229
:100680001092C5021092C60214BE84B7877F84BF41
:100690000FB6F894A89580916000886180936000FF
:1006A000109260000FBEE0E0F8E3099511E0A0E0D1
:1006B000B1E0EAEEFBE402C005900D92A235B1076D
:1006C000D9F722E0A2E5B1E001C01D92A33CB20738
:1006D000E1F70E9493140C94F3250C9400004F92C0
:1006E0005F926F927F92AF92BF92CF92DF92EF9222
:1006F000FF920F931F93CF93DF9300D000D000D0D1
:10070000CDB7DEB7FC01D080118183819481892B24
:1007100009F4C9C61F3F21F40FEFD01609F4C3C670
:100720007F0185E0DE01119601900D928A95E1F737
:10073000F701228189819A81222349F00E940620B3
:10074000082F682F89819A810E947E2003C00E9411
:100750005220082F29E0129FF00111243CE6039F4C
:10076000E00DF11D1124ED0DF11DEE0FFF1FEA5BF1
:10077000FE4F05911491003F8CE51807C1F180F4FC
:10078000083DECE51E07C9F0093DFCE51F07D9F15E
:10079000073D2CE51207D1F526E241EE61EE10C0CF
:1007A000023F3CE5130759F130F1033F9CE519077F
:1007B00069F527E245EE66EE03C027E245EE65EEF9
:1007C000C70126960FB6F894DEBF0FBECDBFDF91EE
:1007D000CF911F910F91FF90EF90DF90CF90BF903E
:1007E000AF907F906F905F904F900C94FB0B26E240
:1007F00041EE60EEE5CF27E245EE64EEE1CF26E282
:1008000041EE62EEDDCF28E241E0D9CFF7018281EF
:10081000882309F484C0109252010A3CFCE51F07AA
:1008200009F435C508F041C0033C3CE5130709F461
:10083000D7C4E8F40531ECE51E0778F40230FCE596
:100840001F0708F0C2C501152CE5120709F441C4C1
:1008500001301C4509F46EC49CC006319CE51907A3
:1008600009F462C0023C1C4509F483C492C0063CF2
:10087000FCE51F0709F4F1C450F4043C3CE5130700
:1008800009F4C8C4053C1C4509F4DEC482C0083C18
:100890009CE5190709F4EAC408F0F2C460910F025C
:1008A00028E0620F08F46FEFE7C4013DFCE51F0785
:1008B00009F453C5C0F40D3C3CE5130709F433C5F6
:1008C00050F40B3C9CE5190709F402C50C3C1C458F
:1008D00009F404C55EC00F3CFCE51F0709F42DC5F3
:1008E00008F423C532C5053D3CE5130709F44FC59F
:1008F00040F4033D9CE5190709F43FC508F435C5EC
:100900003EC50D3DFCE51F0709F45BC50E3D2CE51A
:10091000120709F418C40C3D1C45D9F54FC5063122
:10092000FCE51F0709F0B6C390911402882381F0FB
:100930009A7A81E009F480E080935301811102C02A
:1009400069E201C065E38BE292E00E942C1F0BC0BC
:1009500080915301811102C069E201C065E38BE21D
:1009600092E00E94201F26960FB6F894DEBF0FBEBD
:10097000CDBFDF91CF911F910F91FF90EF90DF904E
:10098000CF90BF90AF907F906F905F904F900C94FE
:10099000D81FF70100811181C8010E940620D82EBE
:1009A000682FC8010E947E20B8018D2D0E94B610CC
:1009B000182F782EF701058102950F70A280A110E3
:1009C0001092B7028091B502877089F0AA2079F061
:1009D00080E2810F883058F082E09E830E94DC2004
:1009E0008091B5028770BB24B3949E818111B12C94
:1009F000C92EC2948FE0C822D12CFEE0CF16D104BC
:100A000008F00EC3F601EA5AFF4F0C94C625892F51
:100A1000807F9F70092F882311F00295007FAA2004
:100A2000B9F0002309F456C280E2810F883010F03B
:100A3000711006C090911402092B0093140205C096
:100A40009091B702092B0093B7020E94D81F42C2AF
:100A5000812F0E94A323002309F4E2C2105E0095B7
:100A6000183010F0711006C0909114020923009301
:100A7000140205C09091B70209230093B7020E94A7
:100A8000D81FCEC2292F207F892F8F70203211F0DE
:100A90008295807F772021F021E07216E9F026C050
:100AA000AA2081F02091B802002351F0013041F4D6
:100AB000982F922B291709F4B3C29093B802B0C2B1
:100AC000822B1EC0002319F0013009F4A9C28E83C5
:100AD0000E94D21F8E818DC1AA2021F0063008F01D
:100AE0009FC20EC0053008F09BC283C1AA2059F0F6
:100AF000002331F0F701958190FFECC19F70958341
:100B00000E9499238DC2002309F473C1193309F09F
:100B1000F3C1FFEF07EE23E0F15000402040E1F782
:100B2000E9C1292F26952695237030E0211531053E
:100B300021F02130310559F073C2AA2019F0812F1C
:100B4000937002C080E090E00E94D90B77C2AA2087
:100B500019F0812F937002C080E090E00E94C30BD7
:100B60006DC2AA20F9F0153F51F0163F71F0143F05
:100B7000A9F4809154019091550181600BC080913E
:100B8000540190915501826005C08091540190916B
:100B9000550184609093550180935401812F0E94E8
:100BA0001D1E1EC0153F51F0163F71F0143FA9F4F1
:100BB00080915401909155018E7F0BC0809154011A
:100BC000909155018D7F05C0809154019091550100
:100BD0008B7F9093550180935401812F0E94561D65
:100BE0000E94E11E2BC2892F837009F071C0A110F1
:100BF00023C2812F829586958770880F880F412F99
:100C00004F7050E060E070E02A013B01082E04C004
:100C1000440C551C661C771C0A94D2F714FF12C0B2
:100C20000FE010E020E030E004C0000F111F221F91
:100C3000331F8A95D2F7B901A80140955095609568
:100C4000709503C040E050E0BA0196959695937078
:100C5000892F90E082309105E9F08330910579F198
:100C60000091B9021091BA022091BB023091BC02EE
:100C7000019759F04429552966297729CB01BA01F2
:100C8000602371238223932320C0402A512A622AA1
:100C9000732A15C044295529662977298091B902FC
:100CA0009091BA02A091BB02B091BC028A019B0153
:100CB000082719272A273B27C901B80106C0CB01FD
:100CC000BA0164297529862997290E941621B4C181
:100CD000AA2019F0892F817001C08695882309F414
:100CE000ABC1812F829586958770880F880F412F21
:100CF0004F7050E060E070E02A013B01082E04C014
:100D0000440C551C661C771C0A94D2F714FF12C0C1
:100D10000FE010E020E030E004C0000F111F221FA0
:100D2000331F8A95D2F7B901A80140955095609577
:100D3000709503C040E050E0BA0196959695937087
:100D4000892F90E082309105E9F08330910579F1A7
:100D50000091B1021091B2022091B3023091B4021D
:100D6000019759F04429552966297729CB01BA0101
:100D7000602371238223932320C0402A512A622AB0
:100D8000732A15C044295529662977298091B10213
:100D90009091B202A091B302B091B4028A019B017A
:100DA000082719272A273B27C901B80106C0CB010C
:100DB000BA0164297529862997290E94AD203CC172
:100DC000412F50E0FA01E05EF109E531F10508F04C
:100DD0007CC0EC59FF4F0C94C6251F70892F8F7172
:100DE000AA2021F00E94F520812F8ACE0E94B720F0
:100DF000812F0E948E2314C1AA2019F1053008F01A
:100E00000FC1292F2F7181E090E0A0E0B0E0AC018C
:100E1000BD0104C0440F551F661F771F2A95D2F7E6
:100E20008091B1029091B202A091B302B091B4024C
:100E30008A019B01082719272A273B27C901B801E6
:100E400025C0063008F0ECC0DCCFAA2029F0892F9D
:100E50008F712EC0AA20D9F3892F8F710E94B720DD
:100E6000DFC0AA2081F0292F2F7181E090E0A0E05F
:100E7000B0E0BC01CD0104C0660F771F881F991F29
:100E80002A95D2F703C060E070E0CB010E94AD204C
:100E9000C7C0AA2081F0192F1F71812F0E94F52051
:100EA00028E0129FC001112483608093B502812F36
:100EB0000E94F520B5C081E00E94DC20023008F4D9
:100EC000AFC082E00E94DC20ABC0AA2039F0002332
:100ED00009F4BDCF812F0E940A24A2C0002309F487
:100EE000BBCF193349F43FEF87EE93E03150804098
:100EF0009040E1F700C00000812F0E94A32390C022
:100F0000A1109CC09F70292F30E02230310509F4D8
:100F10003EC03CF42115310581F02130310531F11D
:100F20007FC02430310509F477C00CF448C0253067
:100F3000310509F075C080E070C02091C202822F97
:100F4000869586958695482F50E04330510554F498
:100F50008F5F982F990F990F990F822F8770892B88
:100F60008093C2026091C202616048C08091C20257
:100F7000982F96959695969509F446C0915E990F8F
:100F8000990F990F8770892B8093C2022FC06091AF
:100F9000C20260FF09C06E7F6093C20286E090E0EB
:100FA0000E94382580E035C061606093C2026130E4
:100FB00019F489E08093C2026091C20221C080913D
:100FC000C202282F2695269526952F5F2F71922FE6
:100FD000990F990F990F8770892B8093C202243043
:100FE00018F087708093C2028091C202887F91E0DE
:100FF00009F490E06091C20290FB60F96093C20234
:1010000086E090E00E9438258091C2028695869500
:1010100086950E94421312C083E00E94351D0EC0C7
:10102000E8E0CE16D10441F04CF00AE0C01AD10835
:1010300012E0C116D10410F40E94EF0BBB2009F49A
:1010400032C28091B50280FD2EC2F70112828595D1
:10105000859585950E94F520C7010E946F038091B8
:10106000B50285958595859526960FB6F894DEBFD1
:101070000FBECDBFDF91CF911F910F91FF90EF90E9
:10108000DF90CF90BF90AF907F906F905F904F9028
:101090000C94B72007312CE5120750F401153CE5FC
:1010A000130708F4F8C102301C4508F4FCC1F3C171
:1010B000023CECE51E0708F4EEC1063DFCE51F0707
:1010C00008F4F1C10C5D1C450330110508F4EBC1B7
:1010D000E2C1109214020E9485230FEF14E32CE06A
:1010E000015010402040E1F700C0000081E08093F3
:1010F000E00080E28093D8001092C9008FE19EE466
:101100000197F1F700C0000087E090EBDC018093CD
:10111000C3029093C402A093C502B093C6029CE0A0
:1011200088E10FB6F894A895809360000FBE909365
:101130006000FFCF8091EA01982F909590FB80F995
:101140008093EA01B0C126960FB6F894DEBF0FBEB9
:10115000CDBFDF91CF911F910F91FF90EF90DF9066
:10116000CF90BF90AF907F906F905F904F900C9416
:10117000511F80910D0280FF2EC08E7F80930D0243
:1011800060910D0270910E0280910F0290911002F9
:101190000E94D70E10920A028FEF90E7E2E0815092
:1011A0009040E040E1F700C0000026960FB6F894AA
:1011B000DEBF0FBECDBFDF91CF911F910F91FF908A
:1011C000EF90DF90CF90BF90AF907F906F905F9047
:1011D0004F900C948C0C816080930D028695D8C042
:1011E000809114028272D1F026960FB6F894DEBF79
:1011F0000FBECDBFDF91CF911F910F91FF90EF9068
:10120000DF90CF90BF90AF907F906F905F904F90A6
:101210000C94CC0F80911402827231F326960FB693
:10122000F894DEBF0FBECDBFDF91CF911F910F911C
:10123000FF90EF90DF90CF90BF90AF907F906F9036
:101240005F904F900C94D50F80910E0221E0409159
:10125000100260910F02885F25C080910E0221E08C
:101260004091100260910F0288501CC060910F02E3
:1012700028E0621B08F460E021E04091100210C0F9
:101280004091100228E0420F08F44FEF06C0409151
:10129000100228E0421B08F440E021E060910F02B8
:1012A00080910E0226960FB6F894DEBF0FBECDBF1A
:1012B000DF91CF911F910F91FF90EF90DF90CF9032
:1012C000BF90AF907F906F905F904F900C94F30E13
:1012D00080911102833048F48F5F05C08091110224
:1012E000882319F081508093110260910D02709152
:1012F0000E0280910F029091100226960FB6F8947C
:10130000DEBF0FBECDBFDF91CF911F910F91FF9038
:10131000EF90DF90CF90BF90AF907F906F905F90F5
:101320004F900C94D70E81E033C00E94BC0E8250C7
:10133000833008F473CF82E02BC00E94BC0E86502D
:10134000823008F46BCF86E023C00E94BC0E895027
:10135000853008F463CF89E01BC00E94BC0E8F501B
:10136000853008F45BCF8FE013C00E94BC0E85511E
:10137000823008F453CF85E10BC088E109C00E9498
:10138000BC0E8951893008F449CF89E101C083E25C
:1013900026960FB6F894DEBF0FBECDBFDF91CF917A
:1013A0001F910F91FF90EF90DF90CF90BF90AF9083
:1013B0007F906F905F904F900C94C90F10920B022A
:1013C00072C082E080930B026EC00E94461F8111A2
:1013D00002C00E94511F84E090E00E94242590E00A
:1013E0009093C3018093C201F801E350FC45E231C0
:1013F000F10530F4E758FF4F8091C2010C94C625E7
:101400008091C201816027C0826025C0846023C0B2
:10141000806121C080621FC080641DC080681BC0C5
:101420008460886018C08E7F16C08D7F14C08B7F4B
:1014300012C08F7E10C08F7D0EC08F7B0CC08F7747
:101440000AC08B7F877F07C087FB222720F991E0A6
:10145000922790FB87F98093C2016091C20184E0DA
:1014600090E00E9438251092140226960FB6F89448
:10147000DEBF0FBECDBFDF91CF911F910F91FF90C7
:10148000EF90DF90CF90BF90AF907F906F905F9084
:101490004F900C948523F70100811181C8010E94AF
:1014A0005220D82E81CA26960FB6F894DEBF0FBE02
:1014B000CDBFDF91CF911F910F91FF90EF90DF9003
:1014C000CF90BF90AF907F906F905F904F900895B6
:1014D0000895AF92BF92CF92DF92EF92FF920F9357
:1014E0001F93CF93DF93D82EC62EE901E42FF0E0AF
:1014F000611106C0EA50FD4F4491E42F842F7BC058
:10150000E62EF12C26E0829FC00111240FEF10E09F
:10151000B8010E947C255BEA56039001579F300D6D
:1015200011242D0D311D2D0D311D822F880F280FF7
:10153000C8018E199F098E9FD0018F9FB00D9E9F6D
:10154000B00D11249B2F2C9D60011124CD2CDD2486
:101550005801AC18BD08AE9E6001AF9ED00CBE9E77
:10156000D00C11245801A21AB108AE9C9001AF9C76
:10157000300DBE9C300D1124232F3327021B130B7B
:101580000E9F90010F9F300D1E9F300D1124832F51
:101590006230710591F04CF461157105E9F061302C
:1015A0007105C1F4842F4D2D17C06430710571F0A1
:1015B00044F06630710581F00DC0842F4B2F932FBE
:1015C0000BC0E42F4B2F9E2F8D2D06C08B2F942FF9
:1015D000432F02C08B2F9D2DE42FF0E0EA50FD4FEA
:1015E0004491E82FF0E0EA50FD4F8491E92FF0E0BC
:1015F000EA50FD4FE49149838883EA83DF91CF91DC
:101600001F910F91FF90EF90DF90CF90BF90AF9020
:1016100008959091C20192FF0DC0282F28712830A3
:1016200019F4877F846006C0282F2471243011F4B8
:101630008B7F886093FF0DC0282F2871283119F403
:10164000877E846106C0282F2471243111F48B7E9B
:10165000886194FD877E08951F93CF93DF93CDB764
:10166000DEB767970FB6F894DEBF0FBECDBF4B8BCA
:101670005C8B6D8B7E8B8F8B86E09E01235F3F4F53
:10168000D901E82F1D92EA95E9F795E0FE017396DE
:10169000D90101900D929A95E1F7F901DE011796B3
:1016A00001900D928A95E1F7CE0107960E94AC2138
:1016B000811136C086E0FE013796DE011196019059
:1016C0000D928A95E1F77F816885EA85FB853097E1
:1016D00039F16F3F11F47F3F19F12091390230E069
:1016E000C90101968770992740916A0250E08417DA
:1016F000950779F179836A83FD83EC8396E0929F65
:10170000D001939FB00D1124A65CBD4FFE01319610
:1017100001900D929A95E1F7809339020E94202161
:1017200016E080916A0290913902891711F1189F91
:10173000C0011124865C9D4F0E94AC218823C9F012
:1017400080916A0290E001968770992780936A02DF
:10175000E8CF109214020E94852310923902109251
:101760006A02E3E3F2E086E0DF011D928A95E9F781
:10177000D7CF67960FB6F894DEBF0FBECDBFDF910F
:10178000CF911F9108952091A8013091A90182174E
:10179000930771F09093A9018093A801E091C5018E
:1017A000F091C601309721F00084F185E02D099475
:1017B00008952091A6013091A7018217930771F037
:1017C0009093A7018093A601E091C501F091C60115
:1017D000309721F00680F781E02D09940895E0917B
:1017E000C501F091C601309721F00190F081E02D04
:1017F000099480E008950F931F93CF93DF93C62F32
:10180000D42F022FFC0182818823C9F060935201FA
:101810000E94D51E9093A5018093A40180E28C0FB5
:10182000883008F05EC0C77081E001C0880FCA959B
:10183000EAF7DF91CF911F910F910C9499231091AA
:10184000520116133EC08091A4019091A5010E94FF
:10185000AB1E883C9105A8F5C0E2CD0F1D17B9F06D
:1018600080E2810F883040F4177081E001C0880F5A
:101870001A95EAF70E948E23C83048F481E09D2F24
:10188000977001C0880F9A95EAF70E949923802FDC
:101890000E940A24093349F4FFEF27EE83E0F15058
:1018A00020408040E1F700C00000802F0E94A32369
:1018B000C830B8F4D77081E001C0880FDA95EAF734
:1018C0000AC080E28C0F883060F4C77081E001C0EC
:1018D000880FCA95EAF7DF91CF911F910F910C9471
:1018E0008E23DF91CF911F910F91089560910D028A
:1018F000669570E04BE050E080E091E00E94E625C4
:10190000892B19F481E080930A020E94D51E9093DE
:10191000040280930302089580910D0280FF0AC0A3
:10192000539A8BB1877F9BB198602FB7F894ECE501
:10193000F1E00DC080E090E0FC01E45AFE4F11821E
:1019400010821282039688349105B1F7E9CF31E015
:10195000E43AF30789F0319148E09BB9000000C0F8
:1019600037FF8BB9330F000000C000C000C08BB937
:1019700000C04A9591F7EBCF2FBF87EC90E001971D
:10198000F1F700C000000895EF92FF920F931F93AC
:10199000CF93DF937C01CCE5D1E000E010E0F701CC
:1019A00084810C3011051CF4882339F002C08111A8
:1019B00004C09E014091100202C09E0140E060916F
:1019C0000F0280910E020E94690A0F5F1F4F23963B
:1019D0000831110521F70E948C0CF701248130E0B9
:1019E0002F5F3F4F217033272483DF91CF911F91C9
:1019F0000F91FF90EF900895EF92FF920F931F9336
:101A0000CF93DF93EC012C813D812F5F3F4F2170FD
:101A100033273D832C838CE5E82E81E0F82E10E0FF
:101A200005E5812F86954C815D81480F511D842FDE
:101A3000817097014091100260910F02809F802D6C
:101A400011240E94690A1F5F83E0E80EF11C18311F
:101A500041F7DF91CF911F910F91FF90EF900C9480
:101A60008C0C0F931F93CF93DF9380E090E0FC01E9
:101A7000E45AFE4F11821082128203968834910537
:101A8000B1F7C0E0D0E008E110E0CE01B8010E945B
:101A9000902540915A01042E000C550BFC01EE0FCD
:101AA000FF1FC417D507B4F040910C01042E000CA1
:101AB000550B4C175D0774F08E0F9F1F9C01245A25
:101AC0003E4F4091100260910F0280910E020E94E1
:101AD000690A07C0E80FF91FE45AFE4F118210820D
:101AE00012822196C831D10581F60E948C0C80911A
:101AF0000B0190915A01980F90935A0120910C017B
:101B0000280F20930C01121614F497311CF08195C4
:101B100080930B01DF91CF911F910F910895AF92A8
:101B2000BF92CF92DF92EF92FF920F931F93CF93CA
:101B3000DF93FC01828180FF03C0BB24BA9402C002
:101B4000BB24B3942CE5E22E21E0F22E0EE511E049
:101B5000C0E0D0E0F80131971082F7011082F8015F
:101B6000108294E0C92ED12CA12C809159018A0DAC
:101B700087FD885E082E000C990BC817D90791F4D1
:101B8000809110028C9DA0018D9D500D11245595C2
:101B9000479555954795970160910F0280910E02E8
:101BA0000E94690AAB0CF1E0CF1AD108F1F6219638
:101BB00083E0E80EF11C0D5F1F4FC831D10551F6CF
:101BC0000E948C0C8091590191E0B91206C08111DC
:101BD00002C087E107C0815005C090E00196BE01B8
:101BE0000E94902580935901DF91CF911F910F9111
:101BF000FF90EF90DF90CF90BF90AF900895EF925D
:101C0000FF921F93CF93DF93EC018CE5E82E81E0E8
:101C1000F82E10E08C8197014091100260910F0224
:101C2000810F0E94690A165F83E0E80EF11C103FE5
:101C300089F70E948C0C8A819C8180FF02C09F5F83
:101C400001C091509C83DF91CF911F91FF90EF9045
:101C5000089590910D0290FF0FC020E030E0F9014F
:101C6000E45AFE4F8183608342832D5F3F4F2834C7
:101C70003105A9F70C948C0C08950F931F93CF9303
:101C8000DF9300D01F92CDB7DEB78C0180915B014E
:101C900081110AC09E012F5F3F4F4FEF6FEF0E94EF
:101CA000690A8A8180935B01F8018481813051F057
:101CB00028F0823061F440915B010AC080915B01A1
:101CC00040E007C060915B0140E080E003C040E07D
:101CD00080E060E00E94290EF801248130E0C90113
:101CE000019663E070E00E94902584830F900F902E
:101CF0000F90DF91CF911F910F910895CF93DF93B4
:101D000000D01F92CDB7DEB790910D0290FF0AC0B0
:101D10009E012F5F3F4F0E94690A4B8169818A8132
:101D20000E94290E0F900F900F90DF91CF91089590
:101D3000CF93DF93EC01EDE0F2E0438162818C818F
:101D40000E947E0E8C818F5F8C83DF91CF910895EE
:101D5000CF93DF93EC01EC81F0E0E550FC4F449130
:101D6000EDE0F2E0628181810E947E0E8C818F5FC6
:101D70008C83DF91CF91089580910D0280FF02C086
:101D80008695089580E0089580910D02282F26956C
:101D900030E02115310519F48170826005C02532CB
:101DA000310524F08170886480930D020895CF93EB
:101DB000DF9300D000D0CDB7DEB7AB01BC014983C3
:101DC0005A836B837C830E94C40E49815A816B8144
:101DD0007C8188E090E00F900F900F900F90DF9142
:101DE000CF910C944A255F926F927F928F929F922F
:101DF000AF92BF92CF92DF92EF92FF920F931F9319
:101E0000CF93DF9300D01F92CDB7DEB7182F762E79
:101E1000042F622E90910D0290FF6DC0E92FE69580
:101E2000AE2FB0E0A85EBE4F8C91809309029E7FDA
:101E3000923061F49E012F5F3F4F812F0E94690A0B
:101E40004B8169818A810E94290E43C0823019F436
:101E5000009110023EC0863019F410910E0239C074
:101E60008930D9F38931A9F5E9518E2F8170582E27
:101E7000E695F0E0EA50FC4FA590B4908CE5C82EB2
:101E800081E0D82EE12CF12CBB2498E1892E912CF5
:101E9000EA9CC001EB9C900DFA9C900D1124B401BA
:101EA0000E947C25812F511002C0860F01C0861B25
:101EB0009601402F672D0E94690A8FEFE81AF80AF1
:101EC00083E0C80ED11C88E1E816F10409F70E94EE
:101ED0008C0C10930E0270920F0200931002662079
:101EE00051F060910D0270910E0280910F0290915D
:101EF00010020E94D70E0F900F900F90DF91CF919C
:101F00001F910F91FF90EF90DF90CF90BF90AF9017
:101F10009F908F907F906F905F90089590910D02A9
:101F200090FF36C09170811102C0926006C0853268
:101F300010F0986402C0880F982B90930D026623CE
:101F400051F060910D0270910E0280910F029091FC
:101F500010020E94D70E60910D02669570E04BE072
:101F600050E080E091E00E94E625892B19F0109264
:101F70000A0202C00E94760C81E08093060220E0F3
:101F80004091100260910F0280910E020C94F30EAA
:101F9000089561E00C948E0F80910D02869581501A
:101FA00009F484E261E00C948E0F80910D02869515
:101FB0008F5F853208F081E061E00C948E0FEDE0D8
:101FC000F2E083E0808311828FEF82838383148227
:101FD00060817181828193810C94D70E3F924F92E0
:101FE0005F926F927F928F929F92AF92BF92CF92A9
:101FF000DF92EF92FF920F931F93CF93DF9300D066
:1020000000D0CDB7DEB70DE311E02AEA31E03A8324
:102010002983D901B12CEE24E394F12C3D014D909C
:102020005C90119711961C921E92F80181918F017C
:10203000E82FE295EF702E2F30E03C832B83F901DF
:1020400091A18F70970101C0220F8A95EAF7892F1D
:10205000822B81A382A1A22EA0948A2182A3F0EADE
:10206000FA95F1F789E4C82E81E0D82E60E070E09F
:10207000F60131906F01832D82958F7090E0FC0105
:1020800040A18D909C90119750E0832D8F7002C0DD
:10209000559547958A95E2F740FD08C0C701062E81
:1020A00002C0880F991F0A94E2F702C080E090E016
:1020B0008829992911969C938E936F5F7F4F693081
:1020C0007105B1F6EB81FC8181A1A822A1A282A1B8
:1020D000282B22A3129681E0F30120813181421640
:1020E000530609F480E0B82AF1E0A23CBF0709F0EA
:1020F00095CFBB2049F081E0809358010E94D51E06
:102100009093570180935601809158018823B9F02C
:1021100080915601909157010E94AB1E069778F06E
:10212000E8ECF1E0A981BA818D919D91BA83A983F0
:1021300081939193A25CB140A9F7109258018B2D25
:102140000F900F900F900F90DF91CF911F910F91F3
:10215000FF90EF90DF90CF90BF90AF909F908F90C7
:102160007F906F905F904F903F900895CF93DF9353
:1021700029E0729FF00111243CE6839FE00DF11DE0
:102180001124E60FF11DEE0FFF1FEA5BFE4FC59114
:10219000D491CE01C238D10549F1B0F4C133D10593
:1021A00009F464C048F4C932D10509F458C0CA32F0
:1021B000D10509F462C068C0C533D10509F448C02F
:1021C000C933D10599F060C0C33ED10541F138F45F
:1021D000C03ED10591F0C23ED105B1F055C0C63E1A
:1021E000D10521F1C73ED10561F14EC02091C20158
:1021F00020FD43C221FD41C242C22091C20120FF05
:102200003EC289E390E03BC22091C20122FF37C267
:102210008091C20184FDE3C183EE90E030C28091E1
:10222000C20182FFF5CF82EE90E029C22091C20167
:1022300023FF25C28091C20184FDD1C187EE90E0C9
:102240001EC28091C20183FFF5CF86EE90E017C2D7
:102250002091C20125FF13C289E290E010C22091B3
:10226000C20125FF0CC285E390E009C22091C201A2
:1022700026FF05C28AE290E002C22091C20126FF39
:10228000FEC181E390E0FBC1C11561E5D60708F00E
:1022900047C0C11570E5D70708F03DC1C83ED1055C
:1022A00020F5C03ED10508F0EAC1C83AD10570F466
:1022B000C53AD10508F0AEC0C130D10509F4DFC17F
:1022C00008F48DC1249708F48AC1D9C1CF3BD10548
:1022D00008F4ABC0C03CD10508F481C1CE01880F21
:1022E000991FFC01EA58FE4F06C1C11520E3D20731
:1022F00088F4C11530E2D30708F0F6C0C03FD1051D
:1023000008F46DC1CF3FD10511F008F0B8C1CE017E
:102310009065B5C1C11560E4D60708F4EFC0F7C0F9
:10232000C11579E5D70758F5C11588E5D80708F034
:1023300042C1C11594E5D90778F4C11523E5D20748
:1023400008F01DC1C11532E5D30708F001C19C2F6B
:102350008827816F906A93C1C11565E5D60708F497
:1023600025C1C11576E5D70708F039C18C2F0E9429
:10237000090B8F7190E0982F8827906280C1CD3B28
:102380008CE5D80709F422C108F5CB3B2CE5D20730
:1023900009F416C108F017C1C1156AE5D60708F09F
:1023A0001EC18C2F8F700E94090BFE0194E0F695E0
:1023B000E7959A95E1F7EF70F0E0FE2FEE27F06ACF
:1023C0008F70806E9F01282BC90159C1C03C7CE5EC
:1023D000D70709F401C160F4CE3B9CE5D90709F4A5
:1023E000F8C0CF3BDC4509F0FAC080E092ED47C170
:1023F000CE0190568115904208F0F1C08D2F8F715B
:102400000E94090BFE01FF27F0628F71BF01782B3C
:10241000CB0135C1C53AD10509F4E4C0C63AD105AE
:1024200009F0E3C082E890E42AC1C83AD10509F472
:10243000DFC0C93AD10509F4DEC0CA3AD10509F4B2
:10244000DDC0CB3AD10509F4DCC0CC3AD10509F4A2
:10245000DBC0CB3BD10509F4DAC0CC3BD10509F494
:10246000D9C0CD3AD10509F4D8C0C03BD10509F493
:10247000D7C0CE3AD10509F4D6C0CF3AD10509F478
:10248000D5C0C13BD10509F4D4C0C23BD10509F484
:10249000D3C0C33BD10509F4D2C0C43BD10509F474
:1024A000D1C0C53BD10509F4D0C0C63BD10509F464
:1024B000CFC0C73BD10509F4CEC0C83BD10509F454
:1024C000CDC0C93BD10509F4CCC0CD3BD10509F441
:1024D000CBC0CE3BD10509F4CAC0CA3BD10509F433
:1024E000C9C080E094E4CBC0CE019F70FC01EE0F28
:1024F000FF1FEA50FD4F85919491C1C09E01332783
:10250000C901D3FF02C0986CBAC0906CB8C0CE01AC
:102510009F70906AB4C02C2F237081E090E002C0BD
:10252000880F991F2A95E2F79C689E0174E0369502
:1025300027957A95E1F72370922BEC2FEF70E695B3
:10254000E69560E2E69FF00111248E2B9F2B97C049
:102550008C2F8695869570E2879FA0011124CE016D
:102560008370992721E030E0B90102C0660F771F20
:102570008A95E2F7CB01842B952B9C6880C08C2F29
:102580008695869570E2879FA0011124CE01837005
:10259000992721E030E0B90102C0660F771F8A95C4
:1025A000E2F7CB01842B952B9A6869C09C2F882772
:1025B000846F906A64C09C2F8827806F906A5FC088
:1025C00080E094ED5CC080E095ED59C080E091ED35
:1025D00056C080E090ED53C080E093ED50C080E0A5
:1025E00090E04DC081E890E44AC083E890E447C0A1
:1025F00082EE94E444C089EE94E441C08AEE94E40F
:102600003EC085EB94E43BC086EB94E438C083EB9A
:1026100094E435C084EB94E432C087EB94E42FC09B
:102620008CEC94E42CC08DEC94E429C083E895E410
:1026300026C08AE895E423C082E995E420C084E9B5
:1026400095E41DC081E296E41AC083E296E417C0C7
:1026500084E296E414C085E296E411C086E296E432
:102660000EC087E296E40BC08FE694E408C080E7D2
:1026700094E405C08AE296E402C080EE90E0DF9127
:10268000CF910895CF92DF92EF92FF92843030F491
:10269000811105C090918000977F04C083E09091E4
:1026A0008000986090938000282F30E0AFEFBFEF5C
:1026B0000E94CC2523E030E040E050E00E94A425B9
:1026C0002C3784E138074105510530F4C90169E030
:1026D00070E00E947C2529C0DA01C9018A50974D1B
:1026E000AF4FBF4F6627782F892F9A2F25EF38E2FB
:1026F00041E050E00E94A42569017A01CA01B901B4
:102700000E946C259B01AC01C701B6010E946C259B
:10271000BB27A92F982F872F009721E0A207B1058B
:1027200011F0BC0102C06FEF7FEF70938D006093DA
:102730008C00FF90EF90DF90CF9008952091E400FF
:102740003091E50095E64091EC00842F817040FFC8
:1027500022C08091E80080FD1CC080912102882366
:1027600091F0853091F08091EB0085FD10C0409193
:10277000E4005091E5004217530729F39A01915064
:1027800011F784E0089582E0089583E0089581E0E0
:10279000089580E008954091E80042FFDECF08955B
:1027A0008091230287FF11C08091E80082FD05C05F
:1027B000809121028111F8CF11C08091E8008B77C0
:1027C0000BC080912102882349F08091E80080FFAE
:1027D000F8CF8091E8008E778093E8000895982FD5
:1027E000973058F59093E900981739F07091EC0004
:1027F0002091ED005091F00003C0242F762F50E07F
:1028000021FF19C03091EB003E7F3093EB003091F7
:10281000ED003D7F3093ED003091EB00316030935F
:10282000EB007093EC002093ED005093F0002091AA
:10283000EE0027FF07C09F5FD3CF8F708093E90022
:1028400081E0089580E008952091290230912A02C4
:102850002617370748F06115710539F42091E80013
:102860002E772093E80001C0B90140E061157105A1
:10287000A9F120912102222309F443C0253009F453
:1028800042C02091E80023FD40C02091E80022FDD5
:1028900032C02091E80020FFE9CF4091F300209161
:1028A000F20030E0342BFC01CF016115710559F0C5
:1028B0002830310540F481918093F1006150710915
:1028C0002F5F3F4FF1CF41E02830310509F040E064
:1028D0002091E8002E772093E800C8CF4111C9CF9E
:1028E0000AC080912102882361F0853061F08091D7
:1028F000E80083FD0AC08091E80082FFF2CF80E00B
:10290000089582E0089583E0089581E0089580911C
:102910000B02811107C080912102843011F081E007
:10292000089582E00895CF93DF93CDB7DEB72C975B
:102930000FB6F894DEBF0FBECDBF84B7877F84BFCC
:102940000FB6F894A895809160008861809360002C
:10295000109260000FBE80E88093610010926100C9
:1029600085B7806885BF85B7806885BF0E94F51AE6
:102970000E94141B8091E20084608093E2007894AE
:10298000809121028823A1F01091E9001F7090919D
:10299000EC00892F817090FD80E8182B1092E900DF
:1029A0008091E80083FD0E94DC171F701093E900FE
:1029B00082E084BD93E095BD9AEF97BD80936E0051
:1029C000ADE3B1E041E050E02CE02A0F8D91E82F1B
:1029D000E295EF70F0E031A18F70BA0102C0660F8E
:1029E000771F8A95E2F7CB01962F9095932391A3B9
:1029F00092A1892B82A32A13E9CFA9E4B1E041E097
:102A000050E029E02A0F8D91E82FE295EF70F0E079
:102A100031A18F70BA0102C0660F771F8A95E2F765
:102A2000CB01962F9095932391A392A1892B82A3FA
:102A30002A13E9CFEAEAF1E0A8ECB1E01192119291
:102A40001D921D9271E0E23CF707C1F70E94461FFC
:102A5000811102C00E94511F279A2F988AE080930B
:102A6000800089E1809381008FEF9FEF9093870032
:102A7000809386000E94AF1F0E94461F811102C0F2
:102A80000E94511F82E090E00E9424258093EA0179
:102A900084E090E00E94242590E09093C30180930D
:102AA000C20183E090E00E942425682F70E080E05E
:102AB00090E00E9416210E94AF1F8091C4018111F5
:102AC00038C08091EA0181608093EA010E94461F2C
:102AD000811104C00E94511F0E94DF0F88E090E026
:102AE0000E942C2560930D0270930E0280930F02BA
:102AF000909310026E7F71F40E94DF0F88E090E0E7
:102B00000E942C2560930D0270930E0280930F0299
:102B1000909310020E94C40E10920A0280910D023E
:102B200080FF04C060E086950E948E0F81E0809354
:102B3000C4018DE091E09093C6018093C501EE241D
:102B4000E394F12C80912102853009F05CC08091E2
:102B50002102843009F444C01092C70120E488E1C6
:102B600090E00FB6F894A895809360000FBE209374
:102B7000600080E00E94421310920A0280911302CA
:102B8000811117C081E08093130280910D02982F6C
:102B90009170909312028E7F80930D028FEF90E7D9
:102BA000E2E081509040E040E1F700C000000E9468
:102BB0008C0C83B7817F846083BF83B7816083BFC0
:102BC0007894889583B78E7F83BF0FB6F894A895C5
:102BD00080916000886180936000109260000FBE59
:102BE00080912002882309F4ADCF0E94EE0FE8EC1B
:102BF000F1E081919191892B09F08DC121E0E03EB6
:102C0000F207B9F79FCF0E94EE0FEBEEF1E0A8ECD0
:102C1000B1E000E010E0602F4D915D912191319184
:102C2000242735272115310599F180E090E06701CF
:102C3000082E02C0CC0CDD1C0A94E2F75601A22239
:102C4000B322AB2809F189836A834C215D2181E09D
:102C5000452B09F480E08B830E94D51E8160782F7C
:102C60009D838C8349815A816B818D810E942C0BBD
:102C7000000F111FF801E551FE4F80819181C82698
:102C8000D926D182C0821AC001968930910579F681
:102C90000F5F1F4F0C30110509F0BDCF8FEF8E83F2
:102CA0008F8318860E94D51E8160782F9A87898726
:102CB0004E815F8168858A850E942C0B8091E70197
:102CC0009091E8010E94AB1EAC019091E601911138
:102CD00003C02CE231E002C022E330E04217530788
:102CE00008F478C08091E2011091E30181110BC0DA
:102CF000111127C12091E401211123C12091E50187
:102D000021111FC167C09F3F19F09F5F9093E6019B
:102D1000181624F40E94FD1D8093E2018091E201C7
:102D200087FF05C00E94FD1D81958093E201111669
:102D300024F40E94FD1D8093E3018091E30187FF4D
:102D400005C00E94FD1D81958093E3013091E20151
:102D50003323E1F02091E3012223C1F045EB34035A
:102D6000C0011124892F990F990B009709F481E074
:102D70008093E20165EB2603C0011124892F990F8E
:102D8000990B009709F481E08093E3018091E401BD
:102D9000181624F40E94DB1D8093E4018091E40165
:102DA00087FF05C00E94DB1D81958093E40180911F
:102DB000E501181624F40E94DB1D8093E501809143
:102DC000E50187FF05C00E94DB1D81958093E50129
:102DD0000E94E11E1091E9010E94EF0B181721F0EB
:102DE0000E94EF0B8093E90180910A02882309F485
:102DF000A9CE80910902E0910D02E695E81BE093CF
:102E00000502823049F4F0E0E75FFA4FE4910E2FBB
:102E100010E028EA3EE049C0863049F4F0E0EA5F7D
:102E2000FA4FE4910E2F10E028E93EE03EC08930D1
:102E300051F4E695F0E0ED5FFA4FE4910E2F10E0CB
:102E40002FEF3DE032C08F3051F4E695F0E0E050D6
:102E5000FB4FE4910E2F10E02FE83DE026C08531B6
:102E600049F4F0E0E350FB4FE4910E2F10E021E332
:102E70003DE01BC0883181F0833239F4EBEFF4E0A0
:102E8000059114912DE33EE010C0843251F404EF1B
:102E900011E024EC3CE009C008EE13E02CEF3CE02C
:102EA00004C000ED17E028E63AE08091060288238E
:102EB000A9F0109206022B873C870E94D51EA8011C
:102EC00040955095840F951F9093040280930302C0
:102ED00010920802109207023C852B858091030214
:102EE000909104022B873C870E94AB1E2B853C856A
:102EF0008017910708F426CEE0910302F0910402B6
:102F00000E0F1F1F109304020093030283E092E050
:102F1000F901099517CE80E189BD82E189BD09B427
:102F200000FEFDCF8091D8008F7D8093D8008091E6
:102F3000E00082608093E0008091E00081FDFCCFA2
:102F400001CE9F3F09F0E1CEE9CECF92DF92FF9212
:102F50000F931F93CF93DF931F92CDB7DEB7F82E59
:102F60008B0199830E949E13998181111CC0CF2CE3
:102F7000D92E01151105B1F08091E80085FD0AC038
:102F80008091E8008E778093E8000E949E1388234A
:102F900081F309C0F60181916F018093F100015026
:102FA0001109E7CF80E00F90DF91CF911F910F9132
:102FB000FF90DF90CF9008951F93CF93DF93CDB70D
:102FC000DEB7AA970FB6F894DEBF0FBECDBFE3E21F
:102FD000F2E088E08E0F9091F10091938E13FBCF79
:102FE00080912402833009F460C030F4813071F0A4
:102FF000823009F49CC0B3C08A3009F488C08B3099
:1030000009F46BC0893009F0AAC020C08091230266
:10301000813A09F0A4C08091E800877F8093E8009E
:103020008091270290912802892B21F468E087E1A2
:1030300092E003C060E080E090E070E00E94241421
:103040008091E8008B778093E80089C0809123020B
:10305000813209F084C08091270290912802029762
:1030600008F07DC08091E800877F8093E800809120
:10307000E80082FD05C0809121028111F8CF6FC068
:103080002091F3008091F20090E0922B029729F4B6
:103090008091F1008B7F813021F48091F100809349
:1030A00016028091E8008B7756C080912302813A06
:1030B00009F055C08091270290912802892B09F0D0
:1030C0004EC08091E800877F8093E8008091E800FF
:1030D00080FFFCCF8091170139C08091230281329B
:1030E000F1F58091270290912802892BC1F58091FA
:1030F000E800877F8093E8000E94D013809125022A
:1031000080931701109214020E94852328C0809199
:103110002302813221F58091E800877F8093E800C7
:103120000E94D013809126028093150218C08091CE
:103130002302813AA1F48091E800877F8093E80020
:103140008091E80080FFFCCF809115028093F10010
:103150008091E8008E778093E8000E94D0138091E0
:10316000E80083FFD6C18091230290912402492F69
:1031700050E04A30510508F0CCC1FA01E557FF4F45
:103180000C94C625803821F0823809F0C2C108C0ED
:1031900080911F0290912002992389F082600FC0D4
:1031A000809127028F70873008F0B3C18093E900C7
:1031B0008091EB0085FB882780F91092E9009091BF
:1031C000E800977F9093E8008093F1001092F1005F
:1031D00074C1282F2D7F09F09CC1882319F08230FB
:1031E00061F097C180912502813009F092C193303E
:1031F00009F080E0809320022EC080912502811189
:103200002AC0809127028F702FEF280F263008F0F8
:1032100080C18093E9002091EB0020FF1CC0933017
:1032200021F48091EB00806214C09091EB009061DA
:103230009093EB0021E030E0A90102C0440F551F3C
:103240008A95E2F74093EA001092EA008091EB0041
:1032500088608093EB001092E9008091E800877FFE
:103260002FC1811156C1109125021F778091E30073
:103270008078812B8093E3008091E800877F8093A2
:10328000E8000E94D0138091E80080FFFCCF80917D
:10329000E30080688093E300111102C082E001C066
:1032A00083E08093210235C18058823008F031C11B
:1032B00080912502909126028C3D53E0950779F587
:1032C00083E08A838AE289834FB7F894DE011396FC
:1032D00020E03EE051E2E32FF0E050935700E4910C
:1032E00020FF03C0E295EF703F5FEF708E2F90E0FC
:1032F000EA3010F0C79601C0C0968D939D932F5F62
:10330000243149F74FBF8091E800877F8093E80020
:103310006AE270E0CE0101960E942414BDC0409183
:10332000270250912802292F332723303105B9F085
:103330006CF42130310509F4FBC02230310509F06D
:10334000E8C08BE390E0E2EDF5E054C021323105B6
:1033500009F433C02232310509F43CC0DAC09927A0
:1033600081309105D1F05CF4892B09F0D2C0E7E4FB
:10337000F6E0E4918E2F90E0E7E4F6E038C082308A
:10338000910599F0039709F0C4C0EFE1F6E0E491EC
:103390008E2F90E0EFE1F6E02AC0E1E3F6E0E49161
:1033A0008E2F90E0E1E3F6E022C0E5E2F6E0E49162
:1033B0008E2F90E0E5E2F6E01AC04115510509F4C0
:1033C000BCC04130510509F0A4C089E090E0EDEFA8
:1033D000F5E010C04115510509F4B4C04130510564
:1033E00009F097C085E890E0EDE0F5E003C00097B4
:1033F00009F48FC02091E800277F2093E8002091F6
:10340000290230912A022817390708F4C90140E03F
:10341000009789F120912102222309F43DC0253033
:10342000D9F12091E80023FD37C02091E80022FD6A
:103430002FC02091E80020FFEBCF4091F3002091B6
:10344000F20030E0342B009759F02830310540F479
:1034500044914093F100319601972F5F3F4FF3CF96
:1034600041E02830310509F040E02091E8002E7756
:103470002093E800CDCF4111CDCF0AC08091210229
:10348000882351F0853041F08091E80083FD04C02D
:103490008091E80082FFF2CF8091E8008B778093E3
:1034A000E80037C08038A9F58091E800877F8093D5
:1034B000E800809122028093F1008091E8008E77ED
:1034C0008093E8000E94D01324C0811122C0109183
:1034D00025021230F0F48091E800877F8093E800A5
:1034E000109322020E94D013111106C08091E300B4
:1034F00087FD02C081E001C084E08093210242E0A8
:1035000061EC81E00E94EF1342E261EC82E00E94F4
:10351000EF138091E80083FF1AC08091E800877F55
:103520008093E8008091EB0080628093EB000FC0F5
:1035300082E190E0EDE0F6E05DCF89E090E0E4EE3E
:10354000F5E058CF80E490E0E2E9F5E053CFAA96A9
:103550000FB6F894DEBF0FBECDBFDF91CF911F91A4
:1035600008951F920F920FB60F9211242F933F933D
:103570004F935F936F937F938F939F93AF93BF937B
:10358000CF93DF93EF93FF93C091E900CF708091C9
:10359000EC00D82FD17080FDD0E81092E900809126
:1035A000F000877F8093F00078940E94DC171092DF
:1035B000E9008091F00088608093F000CD2BCF70FF
:1035C000C093E900FF91EF91DF91CF91BF91AF914F
:1035D0009F918F917F916F915F914F913F912F912B
:1035E0000F900FBE0F901F901895E8EDF0E08081CE
:1035F0008E7F80831092E2001092DA001092E10038
:10360000A0EEB0E08C9181608C9380818F77808375
:1036100019BCA7EDB0E08C918E7F8C9380818F7E5A
:10362000808310920C020895CF92DF92EF92FF9266
:103630000F931F93CF93DF93C8EDD0E088818F7EE7
:103640008883E7EDF0E080818160808384E082BF41
:1036500081E080930C0288818E7F888302EE10E0E7
:10366000F80110821092DA0081EEC82ED12CF601FA
:10367000108288818F778883888180688883888199
:103680008F7D888319BC1092210210922202109221
:10369000200210921F0290EEE92EF12CF70180819A
:1036A0008B7F808388818160888342E060E080E056
:1036B0000E94EF13F60180818E7F8083F801808164
:1036C00081608083808188608083F70180818E7F24
:1036D0008083888180618883DF91CF911F910F91D2
:1036E000FF90EF90DF90CF9008951F920F920FB64A
:1036F0000F9211242F933F934F935F936F937F9378
:103700008F939F93AF93BF93EF93FF938091E100CB
:1037100082FF09C08091E20082FF05C08091E10034
:103720008B7F8093E1008091DA0080FF2AC0809136
:10373000D80080FF26C08091DA008E7F8093DA0067
:103740008091D90080FF18C080E189BD82E189BDE8
:1037500009B400FEFDCF81E08093210280910C022C
:1037600081110FC00E94F51A0E94141B8091E20083
:1037700084608093E20005C019BC1092210210926F
:103780000C028091E10080FF17C08091E20080FF71
:1037900013C08091E2008E7F8093E2008091E2006E
:1037A00080618093E2008091D80080628093D8008D
:1037B00019BC85E0809321028091E10084FF47C01D
:1037C0008091E20084FF43C080E189BD82E189BD30
:1037D00009B400FEFDCF8091D8008F7D8093D80082
:1037E0008091E1008F7E8093E1008091E2008F7EE6
:1037F0008093E2008091E20081608093E2008091FA
:103800002202882311F084E007C08091E30087FD45
:1038100002C081E001C083E0809321021092140273
:103820000E9485230E94AF1F0E94EF0B109213028B
:1038300080911202882349F080910D02816080936B
:103840000D0260E086950E948E0F0E94760C80919A
:10385000E10083FF27C08091E20083FF23C08091B5
:10386000E100877F8093E10082E080932102109243
:1038700022028091E1008E7F8093E1008091E2003E
:103880008E7F8093E2008091E20080618093E2006D
:1038900042E060E080E00E94EF138091F0008860D9
:1038A0008093F000FF91EF91BF91AF919F918F9125
:1038B0007F916F915F914F913F912F910F900FBE2C
:1038C0000F901F901895809116020895CF93DF9363
:1038D00000D01F92CDB7DEB720912102243031F500
:1038E00023E02983805891099B838A8382E0809317
:1038F000E9008FEF9091E800815095FD06C095EDAD
:103900009A95F1F700008111F5CF8091E80085FFCD
:103910000DC040E050E063E070E0CE0101960E94EF
:10392000A5178091E8008E778093E8000F900F90A4
:103930000F90DF91CF9108950F931F93CF93DF9353
:1039400000D01F92CDB7DEB78C010E948714823061
:1039500011F0843021F584E089831B830A8382E09F
:103960008093E9008FEF9091E800815095FD06C0AB
:1039700095ED9A95F1F700008111F5CF8091E8005F
:1039800085FF0DC040E050E063E070E0CE0101969D
:103990000E94A5178091E8008E778093E8000F9031
:1039A0000F900F90DF91CF911F910F910895CF93BA
:1039B000DF93EC010E948714823011F08430F9F417
:1039C00082E08093E9009FEF8091E800915085FDAF
:1039D00006C085ED8A95F1F700009111F5CF809131
:1039E000E80085FF0CC040E050E066E070E0CE01EA
:1039F0000E94A5178091E8008E778093E800DF9100
:103A0000CF910895CF93DF93EC010E948714823009
:103A100011F0843039F581E08093E9008FEF9091C7
:103A2000E800815095FD06C095ED9A95F1F70000EC
:103A30008111F5CF8091E80085FF14C040E050E08F
:103A400068E070E0CE010E94A5178091E8008E77B3
:103A50008093E80088E0FE01A7E1B2E001900D92BA
:103A60008A95E1F7DF91CF910895843008F083E0E3
:103A7000880F880F880F9091C2029770892B8093CE
:103A8000C202887F91E009F490E06091C20290FB4D
:103A900060F96093C20286E090E00E943825809130
:103AA000C2028695869586950C944213803F39F420
:103AB0008091E30187FF6CC01092E30169C0813FF0
:103AC00029F48091E3011816BCF362C09091E201E1
:103AD000823F29F497FF5CC01092E20159C0833FF6
:103AE00019F41916CCF354C0893F41F48091E401D4
:103AF00018160CF04DC01092E4014AC08A3F29F418
:103B00008091E40187FF44C0F6CF8B3F39F4809168
:103B1000E50187FF3DC01092E5013AC08C3F29F4D2
:103B20008091E5011816BCF333C0843F21F48091E5
:103B3000E1018E7F17C0853F21F48091E1018D7FE7
:103B400011C0863F21F48091E1018B7F0BC0873F3C
:103B500021F48091E101877F05C0883F31F4809195
:103B6000E1018F7E8093E10113C08D3F21F48091AC
:103B7000C1028E7F0BC08E3F21F48091C1028D7FE8
:103B800005C08F3F29F48091C1028B7F8093C102D1
:103B90008091E20181110EC08091E30181110AC080
:103BA0008091E401811106C08091E501811102C07C
:103BB0001092E60108958091C10280FD16C081FD3A
:103BC00016C082FD18C08091E601882391F08832EA
:103BD00090F428E0829FC001112468E270E00E9406
:103BE0009025862F672B29F007C082E0089584E096
:103BF000089581E0089588E008958091C10280FDD4
:103C000014C081FD14C082FD16C08091E601882396
:103C100081F0843180F422E3829FC001112464E1A9
:103C200070E00E949025862F08958CE0089589E128
:103C3000089585E0089582E30895803F21F40E946D
:103C4000FD1D819504C0813F29F40E94FD1D8093D4
:103C5000E3010895823F21F40E94FD1D819504C077
:103C6000833F29F40E94FD1D8093E2010895893F5E
:103C700019F40E94DB1D05C08A3F31F40E94DB1D50
:103C800081958093E40108958B3F21F40E94DB1D10
:103C9000819504C08C3F29F40E94DB1D8093E501CF
:103CA0000895843F21F48091E101816017C0853F30
:103CB00021F48091E101826011C0863F21F480915E
:103CC000E10184600BC0873F21F48091E1018860AD
:103CD00005C0883F31F48091E10180618093E1016A
:103CE00008958D3F21F48091C10281600BC08E3F09
:103CF00021F48091C102826005C08F3F29F4809138
:103D0000C10284608093C102089578941F920F923B
:103D10000FB60F9211248F939F93AF93BF9380910F
:103D2000BD029091BE02A091BF02B091C002019667
:103D3000A11DB11D8093BD029093BE02A093BF024E
:103D4000B093C002BF91AF919F918F910F900FBE22
:103D50000F901F901895CF92DF92EF92FF920F93E2
:103D60001F932FB7F8944091BD025091BE0260910D
:103D7000BF027091C0022FBF6A017B01EE24FF24B5
:103D80008C0120E030E0C016D106E206F30610F404
:103D9000415051099A01281B390BC9011F910F91FC
:103DA000FF90EF90DF90CF9008952FB7F894809117
:103DB000BD029091BE02A091BF02B091C0022FBF80
:103DC0000895E091C501F091C601309749F082E075
:103DD0008093E0010480F581E02D80EE91E009956B
:103DE0000E94D51E9093E8018093E70108951F92E9
:103DF0000F920FB60F9211248F939F93AF93BF939F
:103E00008091C701811113C08091BD029091BE02C3
:103E1000A091BF02B091C0024196A11DB11D809337
:103E2000BD029093BE02A093BF02B093C002BF91A7
:103E3000AF919F918F910F900FBE0F901F9018958B
:103E4000FC01329608962081261301C0108231961B
:103E5000E817F907C1F708959C01FC0132969FEF1E
:103E600080E04191461789F09F3F19F4411101C04C
:103E7000982F8F5F8630A9F79F3F39F0F901E90F3E
:103E8000F11D97FDFA9562830895089580E090E012
:103E90000E94322521E08D3E9E4F09F020E0822FC6
:103EA00008956DEE7EEF80E090E00E94562560E080
:103EB00082E090E00E94382560E083E090E00E947C
:103EC00038251092B9021092BA021092BB021092D9
:103ED000BC0260E084E090E00E94382560E085E06C
:103EE00090E00E94382560E086E090E00E9438254E
:103EF0006FEF87E090E00E94382540E050E0BA0183
:103F000088E090E00E944A2560E08DE090E00E9409
:103F1000382540E050E0BA0188E190E00E944A254F
:103F200060E087E190E00E94382540E050E0BA016F
:103F30008CE190E00E944A2560E080E290E00E94DF
:103F4000382540E050E0BA018FE090E00E944A2519
:103F500040E050E0BA0183E190E00C944A250E94D1
:103F6000461F811102C00E94511F86E090E00E940E
:103F700024258093C202282F26952695269530E089
:103F80002430310524F0877088618093C2028091CB
:103F9000C20280FF04C086958695869501C080E0A8
:103FA0000C9442138091B80281111092B8020895C6
:103FB0009091B70280911402892B2091B602982F1C
:103FC000922B90932B028091B802882391F0892B39
:103FD00080932B02EDE2F2E080E096E09E0F9E17C8
:103FE00029F021912223D9F38F5FF9CF81110E940B
:103FF000D21FE091C501F091C601309731F00280E7
:10400000F381E02D8BE292E009940895BF92CF9264
:10401000DF92EF92FF920F931F93CF93DF938C0168
:10402000C090B902D090BA02E090BB02F090BC02FE
:104030008091B1029091B202A091B302B091B4020A
:10404000C82AD92AEA2AFB2ACFE1D0E0D701C60143
:104050000C2E04C0B695A795979587950A94D2F72C
:1040600080FF07C0BC2EB8018C2F0E94B6100197AC
:1040700019F4219758F7B12C8B2DDF91CF911F9117
:104080000F91FF90EF90DF90CF90BF900895CF9366
:10409000DF93EC010E940620BE010E94B610DF9162
:1040A000CF91089529E0929F800D1124682F669585
:1040B00066956695982F977085E0689FB0011124EA
:1040C00040E050E080E0FA01E60FF71FE559FD4FB0
:1040D000208130E0092E02C0369527950A94E2F738
:1040E00021703327042E01C0220F0A94EAF7822B95
:1040F0004F5F5F4F4530510531F7089529E0929F9A
:10410000800D1124A82FA695A695A695877051E03D
:1041100001C0550F8A95EAF785E0A89FD0011124C8
:1041200020E030E070E0F901EA0FFB1FE559FD4F98
:104130004081CB01022E02C0969587950A94E2F742
:1041400081709927819584278523842780832F5F19
:104150003F4F2530310539F708956093B1027093D0
:10416000B2028093B3029093B4020C946A230F932B
:104170001F9341E050E060E070E004C0440F551F21
:10418000661F771F8A95D2F7409550956095709578
:104190008091B1029091B202A091B302B091B402A9
:1041A0008A019B01082319232A233B23C901B80153
:1041B0001F910F910C94AD202091B5028095822320
:1041C0008093B502982F977079F430E0482F082E2D
:1041D000000C550B2417350739F085958595859585
:1041E0000E94B7201092B50208950F931F9341E0EB
:1041F00050E060E070E004C0440F551F661F771F59
:104200008A95D2F78091B1029091B202A091B30247
:10421000B091B4028A019B01082B192B2A2B3B2B4E
:10422000C901B8011F910F910C94AD206093B902A0
:104230007093BA028093BB029093BC020C946A23E1
:1042400080916A0290913902891719F08F5F877007
:10425000FBCF08958091380282958F7009F054C089
:1042600080913502882309F44FC080916A02A091A1
:1042700039026091330270913402409136025091BC
:104280003702B6E08A1709F43FC090E041155105A6
:10429000C1F17F3F11F46F3FA1F1B89FF001B99FC9
:1042A000F00D1124E65CFD4F218172132AC020819C
:1042B000621327C02281211124C023813481241755
:1042C000350710F421503109241B350B283C3105EA
:1042D000C0F4209138022F7020612093380226E02C
:1042E000289FF001299FF00D1124E15CFD4F808192
:1042F0008F708061808383E392E00E946F030C944F
:10430000202101968770BECF08950E944720292F53
:104310002F7092959F70E92FF0E03297EE30F10503
:10432000B8F4EB56FF4F0C94C625803F99F018F473
:10433000803E70F40FC0843F59F40CC0803E50F0B2
:10434000813F31F407C0822F869586958695089522
:1043500080E0089581E00895BF92CF92DF92EF92BE
:10436000FF920F931F93CF93DF93CDB7DEB7619783
:104370000FB6F894DEBF0FBECDBF8C0185E0F8010B
:10438000DE011D9601900D928A95E1F7D8013C91CE
:1043900011962C9111971296EC9012971396CD903E
:1043A000DC90149750913302609134028091360270
:1043B00090913702009709F44FC16F3F19F45F3FA6
:1043C00009F44AC1B0903502BB2009F4ECC0409119
:1043D0003802C816D90628F0F601E81BF90BCF0100
:1043E00004C0809590958C0D9D1DFF24F394883C0E
:1043F000910548F0F12C407F09F09FC083E392E0E3
:104400000E946F0321C1842F807F09F044C0621392
:1044100012C0531310C0E1100EC04F7040614093A2
:10442000380283E392E00E946F0380913802D80142
:1044300015968C932EC0CD2819F12F3F11F43F3FD4
:10444000F9F0FE2CE1101CC080916A024091390203
:1044500056E0841709F458C090E0589FF001599F26
:10446000F00D1124E65CFD4F6181261306C06081CA
:10447000361303C06281611103C001968770E9CFD2
:10448000FE2CEE2009F415C18091380281608093E2
:104490003802F12C0EC162130AC0531308C0E11098
:1044A00006C080913802D80115968C93B0C03D8724
:1044B0002E878D859E850E9485218823D1F1EE204F
:1044C000C1F120913802822F82958F7090E002977F
:1044D00074F0809133029091340298878F8319860B
:1044E000DB86CA862C87CE0107960E946F0386E082
:1044F000F801A3E3B2E001900D928A95E1F70E94E2
:104500002A21FF24F394D5C03D872E878D859E8573
:104510000E944720292F22952F7030E0223031054C
:104520000CF0BBC09F7009F0B5C0805E883008F405
:10453000C0C0C8010E946F03E4CF621314C05313BC
:1045400012C0E11010C080913802F8018583C801C3
:104550000E946F0386E0E3E3F2E0DF011D928A959B
:10456000E9F7FB2CA6C03D872E878D859E850E948E
:1045700085218823F1F2EE20E1F220913802822F8A
:1045800082958F7090E002970CF4B1CF8091330246
:10459000909134029A8389831B82DD82CC822E83A0
:1045A000CE010196A2CFC816D90638F0C81AD90A8A
:1045B000B8ECCB16D10450F007C0809590958C0DC7
:1045C0009D1D883C910510F0F12C3EC0FE2CEE2084
:1045D00009F4AFCF621327C0531325C020913802CE
:1045E00020FD18C0822F82958F70482F50E0411512
:1045F000510581F0F80125834F30510541F08F5F5F
:10460000982F9295907F822F8F70892B8583C80178
:104610000E946F0386E0F801A3E3B2E001900D92DF
:104620008A95E1F746C03D872E878D859E850E943D
:10463000852181115CCF809138028160809338029E
:10464000C8010E946F0335C0E3E3F2E086E0DF01BA
:104650001D928A95E9F72DC0EE2009F46ACF3D87B7
:104660002E878D859E850E948521F82E882309F44A
:1046700060CF86E0F801A3E3B2E001900D928A9545
:10468000E1F780913302909134020E9447200E940A
:104690002A210FC0811149CF0CC0243031050CF004
:1046A00048CF9F7009F441CFF8019581907F09F0C0
:1046B0003CCF8F2D61960FB6F894DEBF0FBECDBFF5
:1046C000DF91CF911F910F91FF90EF90DF90CF90EE
:1046D000BF9008951092B7021092B6020E94D81FA0
:1046E000E0EEF1E086E0DF011D928A95E9F7109295
:1046F000E6011092C1020E94E11E80E090E00E945B
:10470000D90B80E090E00C94C30B86E0EDE2F2E080
:10471000DF011D928A95E9F70C946A23882341F002
:104720008095909114028923809314020C94D81FD1
:104730000895882339F090911402892B80931402F4
:104740000C94D81F0895882309F463C0823869F453
:104750000E94EF0B81FF5DC069E38BE292E00E9453
:104760002C1F0E94D81F69E30EC0833891F40E9469
:10477000EF0B80FF4EC063E58BE292E00E942C1F9E
:104780000E94D81F63E58BE292E00E94201F0C94E8
:10479000D81F843869F40E94EF0B82FF3AC067E4A7
:1047A0008BE292E00E942C1F0E94D81F67E4EBCF9F
:1047B0009CEF980F913A10F4682FE5CF90E2980F94
:1047C000983088F4877021E030E0A90102C0440FDE
:1047D000551F8A95E2F7CA018095909114028923AA
:1047E00080931402D4CF9BE5980F933020F480E09F
:1047F00090E00C94D90B98E5980F973120F480E065
:1048000090E00C94C30B803F20F00E94561D0C9446
:10481000E11E0895882309F416C18238B1F40E947C
:10482000EF0B81FD10C169E38BE292E00E942C1F27
:104830000E94D81F2FEF41EE54E0215040405040DD
:10484000E1F700C0000069E317C08338D9F40E9483
:10485000EF0B80FDF8C063E58BE292E00E942C1F15
:104860000E94D81F8FEF91EE24E0815090402040AD
:10487000E1F700C0000063E58BE292E00E94201F98
:104880000C94D81F8438B1F40E94EF0B82FDDBC07A
:1048900067E48BE292E00E942C1F0E94D81F4FEF2A
:1048A00051EE84E0415050408040E1F700C00000EC
:1048B00067E4E2CF9CEF980F913A30F4682F8BE2D7
:1048C00092E00E942C1FDCCF90E2980F983080F489
:1048D000877021E030E0A90102C0440F551F8A957E
:1048E000E2F7CA0190911402892B80931402C8CF79
:1048F0009BE5980F933070F4853A29F0863A31F0B1
:1049000083E890E005C081E890E002C082E890E092
:104910000C94D90B98E5980F973108F08EC0883A1F
:1049200009F445C0893A09F445C08A3A09F445C0FA
:104930008B3A09F445C08C3A09F445C08B3B09F425
:1049400045C08C3B09F445C08D3A09F445C0803B15
:1049500009F445C08E3A09F445C08F3A09F445C0C0
:10496000813B09F445C0823B09F445C0833B09F40F
:1049700045C0843B09F445C0853B09F445C0863BEE
:1049800009F445C0873B09F445C0883B09F445C09C
:10499000893B09F445C08D3B09F445C08E3B09F4C1
:1049A00045C08A3B09F445C080E090E044C082EEF7
:1049B00090E041C089EE90E03EC08AEE90E03BC0BE
:1049C00085EB90E038C086EB90E035C083EB90E05B
:1049D00032C084EB90E02FC087EB90E02CC08CECD1
:1049E00090E029C08DEC90E026C083E891E023C0E0
:1049F0008AE891E020C082E991E01DC084E991E05D
:104A00001AC081E292E017C083E292E014C084E20F
:104A100092E011C085E292E00EC086E292E00BC007
:104A200087E292E008C08FE690E005C080E790E062
:104A300002C08AE292E00C94C30B803F20F00E94F7
:104A40001D1E0C94E11E0895F999FECF92BD81BD03
:104A5000F89A992780B50895A6E1B0E044E050E0C7
:104A60000C945E25A8E1B0E042E050E00C945E2595
:104A7000262FF999FECF92BD81BDF89A019700B417
:104A8000021639F01FBA20BD0FB6F894FA9AF99AB7
:104A90000FBE08950396272F0E9439250E943825BE
:104AA000252F0E943925242F0C9439250196272F74
:104AB0000E9439250C943825DC01CB01FC01F999C1
:104AC000FECF06C0F2BDE1BDF89A319600B40D925A
:104AD00041505040B8F70895DB018F939F930E9497
:104AE000DB25BF91AF91A29F800D911DA39F900DDB
:104AF000B29F900D11240895AA1BBB1B51E107C062
:104B0000AA1FBB1FA617B70710F0A61BB70B881F5D
:104B1000991F5A95A9F780959095BC01CD010895EC
:104B200097FB072E16F4009407D077FD09D00E945A
:104B30007C2507FC05D03EF4909581959F4F089504
:104B4000709561957F4F0895A1E21A2EAA1BBB1B99
:104B5000FD010DC0AA1FBB1FEE1FFF1FA217B30749
:104B6000E407F50720F0A21BB30BE40BF50B661F5F
:104B7000771F881F991F1A9469F760957095809523
:104B800090959B01AC01BD01CF010895EE0FFF1F71
:104B90000590F491E02D0994A29FB001B39FC0014C
:104BA000A39F700D811D1124911DB29F700D811D59
:104BB0001124911D08950E94CC25A59F900DB49FAE
:104BC000900DA49F800D911D11240895FC0141506A
:104BD000504030F001900616D1F73197CF0108957B
:0A4BE000882799270895F894FFCF65
:104BEA0001191A1B1C1D1E1F2021220102631C020F
:104BFA001DD71C661C9C1C0100010202020206064B
:104C0A00060909090909090F0F0F0F0F0F151515C5
:104C1A00181919191919191919191923243031329E
:104C2A00339091353697349694F0F1F4F5F6F767A8
:024C3A00669280
:00000001FF
